{
  "abi": [
    {
      "inputs": [],
      "stateMutability": "nonpayable",
      "type": "constructor"
    },
    {
      "anonymous": false,
      "inputs": [
        {
          "indexed": true,
          "internalType": "address",
          "name": "owner",
          "type": "address"
        },
        {
          "indexed": true,
          "internalType": "address",
          "name": "approved",
          "type": "address"
        },
        {
          "indexed": true,
          "internalType": "uint256",
          "name": "tokenId",
          "type": "uint256"
        }
      ],
      "name": "Approval",
      "type": "event"
    },
    {
      "anonymous": false,
      "inputs": [
        {
          "indexed": true,
          "internalType": "address",
          "name": "owner",
          "type": "address"
        },
        {
          "indexed": true,
          "internalType": "address",
          "name": "operator",
          "type": "address"
        },
        {
          "indexed": false,
          "internalType": "bool",
          "name": "approved",
          "type": "bool"
        }
      ],
      "name": "ApprovalForAll",
      "type": "event"
    },
    {
      "anonymous": false,
      "inputs": [
        {
          "indexed": true,
          "internalType": "address",
          "name": "previousOwner",
          "type": "address"
        },
        {
          "indexed": true,
          "internalType": "address",
          "name": "newOwner",
          "type": "address"
        }
      ],
      "name": "OwnershipTransferred",
      "type": "event"
    },
    {
      "anonymous": false,
      "inputs": [
        {
          "indexed": true,
          "internalType": "address",
          "name": "from",
          "type": "address"
        },
        {
          "indexed": true,
          "internalType": "address",
          "name": "to",
          "type": "address"
        },
        {
          "indexed": true,
          "internalType": "uint256",
          "name": "tokenId",
          "type": "uint256"
        }
      ],
      "name": "Transfer",
      "type": "event"
    },
    {
      "inputs": [
        {
          "internalType": "address",
          "name": "to",
          "type": "address"
        },
        {
          "internalType": "uint256",
          "name": "tokenId",
          "type": "uint256"
        }
      ],
      "name": "approve",
      "outputs": [],
      "stateMutability": "nonpayable",
      "type": "function"
    },
    {
      "inputs": [
        {
          "internalType": "address",
          "name": "owner",
          "type": "address"
        }
      ],
      "name": "balanceOf",
      "outputs": [
        {
          "internalType": "uint256",
          "name": "",
          "type": "uint256"
        }
      ],
      "stateMutability": "view",
      "type": "function"
    },
    {
      "inputs": [
        {
          "internalType": "uint256",
          "name": "tokenId",
          "type": "uint256"
        }
      ],
      "name": "getApproved",
      "outputs": [
        {
          "internalType": "address",
          "name": "",
          "type": "address"
        }
      ],
      "stateMutability": "view",
      "type": "function"
    },
    {
      "inputs": [
        {
          "internalType": "address",
          "name": "owner",
          "type": "address"
        },
        {
          "internalType": "address",
          "name": "operator",
          "type": "address"
        }
      ],
      "name": "isApprovedForAll",
      "outputs": [
        {
          "internalType": "bool",
          "name": "",
          "type": "bool"
        }
      ],
      "stateMutability": "view",
      "type": "function"
    },
    {
      "inputs": [],
      "name": "name",
      "outputs": [
        {
          "internalType": "string",
          "name": "",
          "type": "string"
        }
      ],
      "stateMutability": "view",
      "type": "function"
    },
    {
      "inputs": [],
      "name": "owner",
      "outputs": [
        {
          "internalType": "address",
          "name": "",
          "type": "address"
        }
      ],
      "stateMutability": "view",
      "type": "function"
    },
    {
      "inputs": [
        {
          "internalType": "uint256",
          "name": "tokenId",
          "type": "uint256"
        }
      ],
      "name": "ownerOf",
      "outputs": [
        {
          "internalType": "address",
          "name": "",
          "type": "address"
        }
      ],
      "stateMutability": "view",
      "type": "function"
    },
    {
      "inputs": [],
      "name": "renounceOwnership",
      "outputs": [],
      "stateMutability": "nonpayable",
      "type": "function"
    },
    {
      "inputs": [
        {
          "internalType": "string",
          "name": "uri",
          "type": "string"
        },
        {
          "internalType": "address",
          "name": "to",
          "type": "address"
        }
      ],
      "name": "safeMint",
      "outputs": [
        {
          "internalType": "uint256",
          "name": "",
          "type": "uint256"
        }
      ],
      "stateMutability": "nonpayable",
      "type": "function"
    },
    {
      "inputs": [
        {
          "internalType": "address",
          "name": "from",
          "type": "address"
        },
        {
          "internalType": "address",
          "name": "to",
          "type": "address"
        },
        {
          "internalType": "uint256",
          "name": "tokenId",
          "type": "uint256"
        }
      ],
      "name": "safeTransferFrom",
      "outputs": [],
      "stateMutability": "nonpayable",
      "type": "function"
    },
    {
      "inputs": [
        {
          "internalType": "address",
          "name": "from",
          "type": "address"
        },
        {
          "internalType": "address",
          "name": "to",
          "type": "address"
        },
        {
          "internalType": "uint256",
          "name": "tokenId",
          "type": "uint256"
        },
        {
          "internalType": "bytes",
          "name": "data",
          "type": "bytes"
        }
      ],
      "name": "safeTransferFrom",
      "outputs": [],
      "stateMutability": "nonpayable",
      "type": "function"
    },
    {
      "inputs": [
        {
          "internalType": "address",
          "name": "operator",
          "type": "address"
        },
        {
          "internalType": "bool",
          "name": "approved",
          "type": "bool"
        }
      ],
      "name": "setApprovalForAll",
      "outputs": [],
      "stateMutability": "nonpayable",
      "type": "function"
    },
    {
      "inputs": [
        {
          "internalType": "bytes4",
          "name": "interfaceId",
          "type": "bytes4"
        }
      ],
      "name": "supportsInterface",
      "outputs": [
        {
          "internalType": "bool",
          "name": "",
          "type": "bool"
        }
      ],
      "stateMutability": "view",
      "type": "function"
    },
    {
      "inputs": [],
      "name": "symbol",
      "outputs": [
        {
          "internalType": "string",
          "name": "",
          "type": "string"
        }
      ],
      "stateMutability": "view",
      "type": "function"
    },
    {
      "inputs": [
        {
          "internalType": "uint256",
          "name": "tokenId",
          "type": "uint256"
        }
      ],
      "name": "tokenURI",
      "outputs": [
        {
          "internalType": "string",
          "name": "",
          "type": "string"
        }
      ],
      "stateMutability": "view",
      "type": "function"
    },
    {
      "inputs": [
        {
          "internalType": "address",
          "name": "from",
          "type": "address"
        },
        {
          "internalType": "address",
          "name": "to",
          "type": "address"
        },
        {
          "internalType": "uint256",
          "name": "tokenId",
          "type": "uint256"
        }
      ],
      "name": "transferFrom",
      "outputs": [],
      "stateMutability": "nonpayable",
      "type": "function"
    },
    {
      "inputs": [
        {
          "internalType": "address",
          "name": "newOwner",
          "type": "address"
        }
      ],
      "name": "transferOwnership",
      "outputs": [],
      "stateMutability": "nonpayable",
      "type": "function"
    }
  ],
  "bytecode": {
    "object": "0x60806040523480156200001157600080fd5b506040518060400160405280601181526020017010dc99585d1955d9588cd1185c1c139195607a1b8152506040518060400160405280600481526020016310d5ccd160e21b81525081600090816200006a919062000197565b50600162000079828262000197565b50505062000096620000906200009c60201b60201c565b620000a0565b62000263565b3390565b600780546001600160a01b038381166001600160a01b0319831681179093556040519116919082907f8be0079c531659141344cd1fd0a4f28419497f9722a3daafe3b4186f6b6457e090600090a35050565b634e487b7160e01b600052604160045260246000fd5b600181811c908216806200011d57607f821691505b6020821081036200013e57634e487b7160e01b600052602260045260246000fd5b50919050565b601f8211156200019257600081815260208120601f850160051c810160208610156200016d5750805b601f850160051c820191505b818110156200018e5782815560010162000179565b5050505b505050565b81516001600160401b03811115620001b357620001b3620000f2565b620001cb81620001c4845462000108565b8462000144565b602080601f831160018114620002035760008415620001ea5750858301515b600019600386901b1c1916600185901b1785556200018e565b600085815260208120601f198616915b82811015620002345788860151825594840194600190910190840162000213565b5085821015620002535787850151600019600388901b60f8161c191681555b5050505050600190811b01905550565b6118d180620002736000396000f3fe608060405234801561001057600080fd5b506004361061010b5760003560e01c8063715018a6116100a2578063b88d4fde11610071578063b88d4fde1461021b578063c6f057711461022e578063c87b56dd14610241578063e985e9c514610254578063f2fde38b1461029057600080fd5b8063715018a6146101e75780638da5cb5b146101ef57806395d89b4114610200578063a22cb4651461020857600080fd5b806323b872dd116100de57806323b872dd1461018d57806342842e0e146101a05780636352211e146101b357806370a08231146101c657600080fd5b806301ffc9a71461011057806306fdde0314610138578063081812fc1461014d578063095ea7b314610178575b600080fd5b61012361011e3660046112a4565b6102a3565b60405190151581526020015b60405180910390f35b6101406102f5565b60405161012f9190611311565b61016061015b366004611324565b610387565b6040516001600160a01b03909116815260200161012f565b61018b610186366004611359565b6103ae565b005b61018b61019b366004611383565b6104c8565b61018b6101ae366004611383565b6104f9565b6101606101c1366004611324565b610514565b6101d96101d43660046113bf565b610574565b60405190815260200161012f565b61018b6105fa565b6007546001600160a01b0316610160565b61014061060e565b61018b6102163660046113da565b61061d565b61018b6102293660046114a2565b61062c565b6101d961023c36600461151e565b610664565b61014061024f366004611324565b6106b8565b610123610262366004611580565b6001600160a01b03918216600090815260056020908152604080832093909416825291909152205460ff1690565b61018b61029e3660046113bf565b6106c3565b60006001600160e01b031982166380ac58cd60e01b14806102d457506001600160e01b03198216635b5e139f60e01b145b806102ef57506301ffc9a760e01b6001600160e01b03198316145b92915050565b606060008054610304906115aa565b80601f0160208091040260200160405190810160405280929190818152602001828054610330906115aa565b801561037d5780601f106103525761010080835404028352916020019161037d565b820191906000526020600020905b81548152906001019060200180831161036057829003601f168201915b5050505050905090565b60006103928261073c565b506000908152600460205260409020546001600160a01b031690565b60006103b982610514565b9050806001600160a01b0316836001600160a01b03160361042b5760405162461bcd60e51b815260206004820152602160248201527f4552433732313a20617070726f76616c20746f2063757272656e74206f776e656044820152603960f91b60648201526084015b60405180910390fd5b336001600160a01b038216148061044757506104478133610262565b6104b95760405162461bcd60e51b815260206004820152603d60248201527f4552433732313a20617070726f76652063616c6c6572206973206e6f7420746f60448201527f6b656e206f776e6572206f7220617070726f76656420666f7220616c6c0000006064820152608401610422565b6104c3838361079b565b505050565b6104d23382610809565b6104ee5760405162461bcd60e51b8152600401610422906115e4565b6104c3838383610888565b6104c38383836040518060200160405280600081525061062c565b6000818152600260205260408120546001600160a01b0316806102ef5760405162461bcd60e51b8152602060048201526018602482015277115490cdcc8c4e881a5b9d985b1a59081d1bdad95b88125160421b6044820152606401610422565b60006001600160a01b0382166105de5760405162461bcd60e51b815260206004820152602960248201527f4552433732313a2061646472657373207a65726f206973206e6f7420612076616044820152683634b21037bbb732b960b91b6064820152608401610422565b506001600160a01b031660009081526003602052604090205490565b6106026109f9565b61060c6000610a53565b565b606060018054610304906115aa565b610628338383610aa5565b5050565b6106363383610809565b6106525760405162461bcd60e51b8152600401610422906115e4565b61065e84848484610b73565b50505050565b60008061067060085490565b9050610680600880546001019055565b6001600160a01b03831661069d576106983382610ba6565b6106a7565b6106a78382610ba6565b6106b18185610bc0565b9392505050565b60606102ef82610c53565b6106cb6109f9565b6001600160a01b0381166107305760405162461bcd60e51b815260206004820152602660248201527f4f776e61626c653a206e6577206f776e657220697320746865207a65726f206160448201526564647265737360d01b6064820152608401610422565b61073981610a53565b50565b6000818152600260205260409020546001600160a01b03166107395760405162461bcd60e51b8152602060048201526018602482015277115490cdcc8c4e881a5b9d985b1a59081d1bdad95b88125160421b6044820152606401610422565b600081815260046020526040902080546001600160a01b0319166001600160a01b03841690811790915581906107d082610514565b6001600160a01b03167f8c5be1e5ebec7d5bd14f71427d1e84f3dd0314c0f7b2291e5b200ac8c7c3b92560405160405180910390a45050565b60008061081583610514565b9050806001600160a01b0316846001600160a01b0316148061085c57506001600160a01b0380821660009081526005602090815260408083209388168352929052205460ff165b806108805750836001600160a01b031661087584610387565b6001600160a01b0316145b949350505050565b826001600160a01b031661089b82610514565b6001600160a01b0316146108c15760405162461bcd60e51b815260040161042290611631565b6001600160a01b0382166109235760405162461bcd60e51b8152602060048201526024808201527f4552433732313a207472616e7366657220746f20746865207a65726f206164646044820152637265737360e01b6064820152608401610422565b6109308383836001610d5b565b826001600160a01b031661094382610514565b6001600160a01b0316146109695760405162461bcd60e51b815260040161042290611631565b600081815260046020908152604080832080546001600160a01b03199081169091556001600160a01b0387811680865260038552838620805460001901905590871680865283862080546001019055868652600290945282852080549092168417909155905184937fddf252ad1be2c89b69c2b068fc378daa952ba7f163c4a11628f55a4df523b3ef91a4505050565b6007546001600160a01b0316331461060c5760405162461bcd60e51b815260206004820181905260248201527f4f776e61626c653a2063616c6c6572206973206e6f7420746865206f776e65726044820152606401610422565b600780546001600160a01b038381166001600160a01b0319831681179093556040519116919082907f8be0079c531659141344cd1fd0a4f28419497f9722a3daafe3b4186f6b6457e090600090a35050565b816001600160a01b0316836001600160a01b031603610b065760405162461bcd60e51b815260206004820152601960248201527f4552433732313a20617070726f766520746f2063616c6c6572000000000000006044820152606401610422565b6001600160a01b03838116600081815260056020908152604080832094871680845294825291829020805460ff191686151590811790915591519182527f17307eab39ab6107e8899845ad3d59bd9653f200f220920489ca2b5937696c31910160405180910390a3505050565b610b7e848484610888565b610b8a84848484610de3565b61065e5760405162461bcd60e51b815260040161042290611676565b610628828260405180602001604052806000815250610ee4565b6000828152600260205260409020546001600160a01b0316610c3b5760405162461bcd60e51b815260206004820152602e60248201527f45524337323155524953746f726167653a2055524920736574206f66206e6f6e60448201526d32bc34b9ba32b73a103a37b5b2b760911b6064820152608401610422565b60008281526006602052604090206104c38282611716565b6060610c5e8261073c565b60008281526006602052604081208054610c77906115aa565b80601f0160208091040260200160405190810160405280929190818152602001828054610ca3906115aa565b8015610cf05780601f10610cc557610100808354040283529160200191610cf0565b820191906000526020600020905b815481529060010190602001808311610cd357829003601f168201915b505050505090506000610d0e60408051602081019091526000815290565b90508051600003610d20575092915050565b815115610d52578082604051602001610d3a9291906117d6565b60405160208183030381529060405292505050919050565b61088084610f17565b600181111561065e576001600160a01b03841615610da1576001600160a01b03841660009081526003602052604081208054839290610d9b90849061181b565b90915550505b6001600160a01b0383161561065e576001600160a01b03831660009081526003602052604081208054839290610dd890849061182e565b909155505050505050565b60006001600160a01b0384163b15610ed957604051630a85bd0160e11b81526001600160a01b0385169063150b7a0290610e27903390899088908890600401611841565b6020604051808303816000875af1925050508015610e62575060408051601f3d908101601f19168201909252610e5f9181019061187e565b60015b610ebf573d808015610e90576040519150601f19603f3d011682016040523d82523d6000602084013e610e95565b606091505b508051600003610eb75760405162461bcd60e51b815260040161042290611676565b805181602001fd5b6001600160e01b031916630a85bd0160e11b149050610880565b506001949350505050565b610eee8383610f8a565b610efb6000848484610de3565b6104c35760405162461bcd60e51b815260040161042290611676565b6060610f228261073c565b6000610f3960408051602081019091526000815290565b90506000815111610f5957604051806020016040528060008152506106b1565b80610f6384611123565b604051602001610f749291906117d6565b6040516020818303038152906040529392505050565b6001600160a01b038216610fe05760405162461bcd60e51b815260206004820181905260248201527f4552433732313a206d696e7420746f20746865207a65726f20616464726573736044820152606401610422565b6000818152600260205260409020546001600160a01b0316156110455760405162461bcd60e51b815260206004820152601c60248201527f4552433732313a20746f6b656e20616c7265616479206d696e746564000000006044820152606401610422565b611053600083836001610d5b565b6000818152600260205260409020546001600160a01b0316156110b85760405162461bcd60e51b815260206004820152601c60248201527f4552433732313a20746f6b656e20616c7265616479206d696e746564000000006044820152606401610422565b6001600160a01b038216600081815260036020908152604080832080546001019055848352600290915280822080546001600160a01b0319168417905551839291907fddf252ad1be2c89b69c2b068fc378daa952ba7f163c4a11628f55a4df523b3ef908290a45050565b60606000611130836111b6565b600101905060008167ffffffffffffffff81111561115057611150611416565b6040519080825280601f01601f19166020018201604052801561117a576020820181803683370190505b5090508181016020015b600019016f181899199a1a9b1b9c1cb0b131b232b360811b600a86061a8153600a850494508461118457509392505050565b60008072184f03e93ff9f4daa797ed6e38ed64bf6a1f0160401b83106111f55772184f03e93ff9f4daa797ed6e38ed64bf6a1f0160401b830492506040015b6d04ee2d6d415b85acef81000000008310611221576d04ee2d6d415b85acef8100000000830492506020015b662386f26fc10000831061123f57662386f26fc10000830492506010015b6305f5e1008310611257576305f5e100830492506008015b612710831061126b57612710830492506004015b6064831061127d576064830492506002015b600a83106102ef5760010192915050565b6001600160e01b03198116811461073957600080fd5b6000602082840312156112b657600080fd5b81356106b18161128e565b60005b838110156112dc5781810151838201526020016112c4565b50506000910152565b600081518084526112fd8160208601602086016112c1565b601f01601f19169290920160200192915050565b6020815260006106b160208301846112e5565b60006020828403121561133657600080fd5b5035919050565b80356001600160a01b038116811461135457600080fd5b919050565b6000806040838503121561136c57600080fd5b6113758361133d565b946020939093013593505050565b60008060006060848603121561139857600080fd5b6113a18461133d565b92506113af6020850161133d565b9150604084013590509250925092565b6000602082840312156113d157600080fd5b6106b18261133d565b600080604083850312156113ed57600080fd5b6113f68361133d565b91506020830135801515811461140b57600080fd5b809150509250929050565b634e487b7160e01b600052604160045260246000fd5b600067ffffffffffffffff8084111561144757611447611416565b604051601f8501601f19908116603f0116810190828211818310171561146f5761146f611416565b8160405280935085815286868601111561148857600080fd5b858560208301376000602087830101525050509392505050565b600080600080608085870312156114b857600080fd5b6114c18561133d565b93506114cf6020860161133d565b925060408501359150606085013567ffffffffffffffff8111156114f257600080fd5b8501601f8101871361150357600080fd5b6115128782356020840161142c565b91505092959194509250565b6000806040838503121561153157600080fd5b823567ffffffffffffffff81111561154857600080fd5b8301601f8101851361155957600080fd5b6115688582356020840161142c565b9250506115776020840161133d565b90509250929050565b6000806040838503121561159357600080fd5b61159c8361133d565b91506115776020840161133d565b600181811c908216806115be57607f821691505b6020821081036115de57634e487b7160e01b600052602260045260246000fd5b50919050565b6020808252602d908201527f4552433732313a2063616c6c6572206973206e6f7420746f6b656e206f776e6560408201526c1c881bdc88185c1c1c9bdd9959609a1b606082015260800190565b60208082526025908201527f4552433732313a207472616e736665722066726f6d20696e636f72726563742060408201526437bbb732b960d91b606082015260800190565b60208082526032908201527f4552433732313a207472616e7366657220746f206e6f6e20455243373231526560408201527131b2b4bb32b91034b6b83632b6b2b73a32b960711b606082015260800190565b601f8211156104c357600081815260208120601f850160051c810160208610156116ef5750805b601f850160051c820191505b8181101561170e578281556001016116fb565b505050505050565b815167ffffffffffffffff81111561173057611730611416565b6117448161173e84546115aa565b846116c8565b602080601f83116001811461177957600084156117615750858301515b600019600386901b1c1916600185901b17855561170e565b600085815260208120601f198616915b828110156117a857888601518255948401946001909101908401611789565b50858210156117c65787850151600019600388901b60f8161c191681555b5050505050600190811b01905550565b600083516117e88184602088016112c1565b8351908301906117fc8183602088016112c1565b01949350505050565b634e487b7160e01b600052601160045260246000fd5b818103818111156102ef576102ef611805565b808201808211156102ef576102ef611805565b6001600160a01b0385811682528416602082015260408101839052608060608201819052600090611874908301846112e5565b9695505050505050565b60006020828403121561189057600080fd5b81516106b18161128e56fea26469706673582212209aca968eab12f1c00d32bdd9a0cb14e0249c9f6a9ce8922d6eb1c57bdf42f3e264736f6c63430008110033",
    "linkReferences": {}
  },
  "methodIdentifiers": {
    "approve(address,uint256)": "095ea7b3",
    "balanceOf(address)": "70a08231",
    "getApproved(uint256)": "081812fc",
    "isApprovedForAll(address,address)": "e985e9c5",
    "name()": "06fdde03",
    "owner()": "8da5cb5b",
    "ownerOf(uint256)": "6352211e",
    "renounceOwnership()": "715018a6",
    "safeMint(string,address)": "c6f05771",
    "safeTransferFrom(address,address,uint256)": "42842e0e",
    "safeTransferFrom(address,address,uint256,bytes)": "b88d4fde",
    "setApprovalForAll(address,bool)": "a22cb465",
    "supportsInterface(bytes4)": "01ffc9a7",
    "symbol()": "95d89b41",
    "tokenURI(uint256)": "c87b56dd",
    "transferFrom(address,address,uint256)": "23b872dd",
    "transferOwnership(address)": "f2fde38b"
  },
  "id": 28
}